{
  "contractName": "Counter",
  "abi": [
    {
      "inputs": [],
      "stateMutability": "nonpayable",
      "type": "constructor"
    },
    {
      "inputs": [],
      "name": "counter",
      "outputs": [
        {
          "internalType": "uint256",
          "name": "",
          "type": "uint256"
        }
      ],
      "stateMutability": "view",
      "type": "function",
      "constant": true
    },
    {
      "inputs": [
        {
          "internalType": "uint256",
          "name": "value",
          "type": "uint256"
        }
      ],
      "name": "add",
      "outputs": [
        {
          "internalType": "bool",
          "name": "",
          "type": "bool"
        }
      ],
      "stateMutability": "nonpayable",
      "type": "function"
    },
    {
      "inputs": [
        {
          "internalType": "uint256",
          "name": "value",
          "type": "uint256"
        }
      ],
      "name": "sub",
      "outputs": [
        {
          "internalType": "bool",
          "name": "",
          "type": "bool"
        }
      ],
      "stateMutability": "nonpayable",
      "type": "function"
    }
  ],
  "bytecode": "0x608060405234801561001057600080fd5b50336000806101000a81548173ffffffffffffffffffffffffffffffffffffffff021916908373ffffffffffffffffffffffffffffffffffffffff1602179055506102bf806100606000396000f3fe608060405234801561001057600080fd5b50600436106100415760003560e01c80631003e2d21461004657806327ee58a61461007657806361bc221a146100a6575b600080fd5b610060600480360381019061005b9190610143565b6100c4565b60405161006d919061018b565b60405180910390f35b610090600480360381019061008b9190610143565b6100e3565b60405161009d919061018b565b60405180910390f35b6100ae610102565b6040516100bb91906101b5565b60405180910390f35b6000816001546100d491906101ff565b60018190555060019050919050565b6000816001546100f39190610255565b60018190555060019050919050565b60015481565b600080fd5b6000819050919050565b6101208161010d565b811461012b57600080fd5b50565b60008135905061013d81610117565b92915050565b60006020828403121561015957610158610108565b5b60006101678482850161012e565b91505092915050565b60008115159050919050565b61018581610170565b82525050565b60006020820190506101a0600083018461017c565b92915050565b6101af8161010d565b82525050565b60006020820190506101ca60008301846101a6565b92915050565b7f4e487b7100000000000000000000000000000000000000000000000000000000600052601160045260246000fd5b600061020a8261010d565b91506102158361010d565b9250827fffffffffffffffffffffffffffffffffffffffffffffffffffffffffffffffff0382111561024a576102496101d0565b5b828201905092915050565b60006102608261010d565b915061026b8361010d565b92508282101561027e5761027d6101d0565b5b82820390509291505056fea26469706673582212202aa76020d43d003eefdb2b3cfea30702fcf07a674e3f41b9d32b24352ac3b4b264736f6c634300080a0033",
  "immutableReferences": {},
  "source": "// SPDX-License-Identifier: GPL-3.0\r\npragma solidity ^0.8.0;\r\n\r\ncontract Counter {\r\n    address private owner;\r\n    uint256 public counter;\r\n    constructor() {\r\n        owner = msg.sender;\r\n    }\r\n    \r\n    function add(uint256 value) external returns (bool) {\r\n        counter = counter + value;\r\n        return true;\r\n    }\r\n    \r\n    function sub(uint256 value) external returns (bool) {\r\n        counter = counter - value;\r\n        return true;\r\n    }\r\n}",
  "sourcePath": "F:\\ether\\truffle\\Counter\\contracts\\Counter.sol",
  "compiler": {
    "name": "solc",
    "version": "0.8.10+commit.fc410830.Emscripten.clang"
  },
  "schemaVersion": "3.4.4",
  "updatedAt": "2022-02-23T07:29:26.463Z",
  "networkType": "ethereum",
  "devdoc": {
    "kind": "dev",
    "methods": {},
    "version": 1
  },
  "userdoc": {
    "kind": "user",
    "methods": {},
    "version": 1
  }
}